:020000040800F2
:10000000984100206D020008973C0008192D000857
:10001000953C0008D10700082D49000800000000A9
:10002000000000000000000000000000F33F000896
:100030008909000800000000F13F0008AD400008F9
:10004000870200088702000887020008870200086C
:10005000870200088702000887020008870200085C
:10006000870200088702000887020008870200084C
:10007000E907000859080008D908000887020008A5
:10008000870200088702000887020008870200082C
:10009000870200088702000887020008870200081C
:1000A000870200088702000887020008870200080C
:1000B00087020008870200088702000887020008FC
:1000C00087020008870200088702000887020008EC
:1000D00087020008870200088702000821490008FB
:1000E00087020008870200088702000887020008CC
:1000F00087020008870200088702000887020008BC
:10010000870200088702000859410008870200089A
:100110004D44000887020008654100088702000876
:10012000870200088702000887020008870200088B
:10013000870200080000000000000000870200089D
:10014000870200088702000887020008870200086B
:10015000870200088702000887020008870200085B
:10016000870200088702000887020008870200084B
:1001700087020008870200088702000800000000CC
:1001800000000000870200080000000000000000DE
:10019000870200080000000000000000870200083D
:1001A00000000000000000000000000087020008BE
:1001B00087020008870200088702000887020008FB
:1001C0008702000800F002F800F040F80AA090E86A
:1001D000000C82448344AAF10107DA4501D100F002
:1001E00035F8AFF2090EBAE80F0013F0010F18BF8F
:1001F000FB1A43F001031847A0690000C069000022
:10020000103A24BF78C878C1FAD8520724BF30C842
:1002100030C144BF04680C60704700000023002414
:1002200000250026103A28BF78C1FBD8520728BF06
:1002300030C148BF0B6070471FB505F07CFF9DE8DB
:10024000030000F079F91FBD10B510BD00F0E0F912
:100250001146FFF7F1FF04F0ADFF00F0FEF903B423
:10026000FFF7F2FF03BC00F02FFA000009488047B7
:1002700009480047FEE7FEE7FEE7FEE7FEE7FEE788
:10028000FEE7FEE7FEE7FEE704480549054A064BA0
:100290007047000049410008C5010008983B002054
:1002A00098410020983D0020983D002070B50646FA
:1002B00000F026F9056806F10B0020F00704B442AF
:1002C0009CBF002070BD2B466A68BAB11068A0427E
:1002D00010D304F1080188423CBF5068586007D32E
:1002E0005168101941601168091B01605860146061
:1002F000101D70BD13465268002AE7D121462846DA
:1003000000F006F90028DED170BD70B50446051F67
:1003100000F0F6F80068002C14BF446870BD002C93
:1003200018BFAC423CBF20466468F8D301680A1885
:10033000AA4218BF456003D12A68054611440160EE
:1003400028684119A1421CBF6C6070BD616869607A
:1003500021680844286070BD53EA020C00F06980EF
:100360002DE9F04B4FF00006002B1FBFB3FA83F5C9
:1003700003FA05F424FA05F65E4012BF1643B2FAFA
:1003800082F502FA05F4C5F120051EBF22FA05FC2C
:1003900044EA0C04203556EA044C4FEA144418BFD2
:1003A000641C4FF000084FF00009904271EB030C01
:1003B00039D3002919BFB1FA81F701FA07F6B0FA6B
:1003C00080F700FA07F6C7F120071EBF20FA07FCE6
:1003D00046EA0C062037B6FBF4FCA7EB0507103FF6
:1003E00007F01F0BCBF120060CFA0BFB2CFA06F6DC
:1003F00044BFB3460026202FA4BF5E464FF0000B3B
:100400005BEA060C08BF4FF0010B19EB0B09ABFBC5
:10041000027C48EB0608C01B06FB02CC0BFB03CC9E
:1004200071EB0C01C1E70B46024641464846BDE868
:10043000F08B13B54FF000004FF00001AFF30080D8
:10044000BDE81C40704710B5203AC0F00B80B1E801
:100450001850203AA0E81850B1E81850A0E81850F9
:10046000BFF4F5AF5FEA027C24BFB1E81850A0E802
:10047000185044BF18C918C0BDE810405FEA827C1C
:1004800024BF51F8043B40F8043B08BF7047D20733
:1004900028BF31F8023B48BF11F8012B28BF20F8D4
:1004A000023B48BF00F8012B70474FF0000200B537
:1004B000134694469646203922BFA0E80C50A0E887
:1004C0000C50B1F12001BFF4F7AF090728BFA0E835
:1004D0000C5048BF0CC05DF804EB890028BF40F801
:1004E000042B08BF704748BF20F8022B11F0804F43
:1004F00018BF00F8012B7047704770477047000025
:1005000000487047403B0020704770477047704775
:1005100038B504460A4600206946AFF3008000283B
:1005200008BF38BD02460099204600F04FF8012070
:1005300038BD012000F064B8F8B5AFF3008005467F
:1005400000200C46102000BF0646A819A0420DD975
:10055000324669460020AFF30080070008BF00F074
:100560004FF80098A04218BF0546C419FFF7C8FF0E
:1005700005600746F01D20F007004619284600F0E8
:100580000AF8B44208BFF8BDA21B31463868BDE87E
:10059000F84000F01BB800210160C0E9011070476D
:1005A0001020704710B500F00DF8006810BD10B5B0
:1005B000044600F007F8046010BD000000487047D2
:1005C000383B002000487047383B00200346406815
:1005D0008C46002818BF88423CBF03464068F8D3C9
:1005E00018681844884207D00CF1030020F0070077
:1005F000001D411A521A0146081D0A60FFF785BE08
:1006000010B500F039F8BDE8104000F02FB8704781
:100610007546FFF7D3FFAE4605006946534620F006
:100620000700854618B020B5FFF72EFEBDE8204034
:100630004FF000064FF000074FF000084FF0000B9E
:1006400021F00701AC46ACE8C009ACE8C009ACE851
:10065000C009ACE8C0098D46704710B50446AFF339
:1006600000802046BDE81040FFF7F9BD002801D00A
:1006700000F02AB87047000010B5012805D000210D
:1006800003A000F027F8012010BD09A1F8E7000041
:1006900053494752544D454D3A204F7574206F666B
:1006A0002068656170206D656D6F727900000000D3
:1006B0003A2048656170206D656D6F727920636FB7
:1006C000727275707465640001491820ABBEFEE754
:1006D0002600020070B505460C460A2000E06D1C9D
:1006E00000F011F835B128780028F8D102E0641C38
:1006F00000F009F814B120780028F8D1BDE8704066
:100700000A20AFF3008008B569468DF80000032089
:10071000ABBE08BD07480168C9070AD106490A6887
:1007200042F080720A6000214160016841F00101DD
:1007300001607047001000E0FCED00E000F02ABB13
:1007400070B586B014216846FFF7AFFE1648002446
:10075000016841F004010160006800F004000590A8
:1007600011481030016841F4002101600068022541
:1007700000F4002005904FF48060CDE900050320CF
:10078000CDE902400820094E04906946304600F049
:1007900013FBA802CDE9000569460294304600F03B
:1007A0000BFB06B070BD000030380240000802406C
:1007B00008B505A04FF0FF3300680090022269469B
:1007C000024802F014FA08BDA520000040390020BC
:1007D000FEE7000010220249024802F0B7B900000B
:1007E0001C010020D039002030B41848194C194998
:1007F0000068174D174B603CB839A84202D9144A1B
:10080000543A03E0984203D9114A583A126804E076
:10081000A04201D94A6800E00A6812F4001F11D012
:100820004FF40012A84202D909484C3803E098421C
:1008300003D907485038026004E0A04201D9CA60D9
:1008400000E08A6030BC014800F032B9783A0020FC
:1008500058640240B860024010B51A4C1A4920682A
:10086000884202D91848543804E01849884203D90C
:1008700015485838006808E0144A1449603AB839F5
:10088000904201D9486800E0086810F4801F05D044
:100890000F49012008600F4801F0E6FA094800F00E
:1008A00007F92068016821F01001016020680168E3
:1008B00021F0080101602068016821F00401016055
:1008C00010BD0000183A002058640240B860024091
:1008D000EC00002020380020014800F0E9B80000BA
:1008E000D83A002001681823CAB2103AB2FBF3F2DA
:1008F000054B6FF30901032A9B5CC36500D9091DF1
:100900008165084670470000D46A000810B50146AA
:1009100000208B698A6A4FF0C07453B1B3F5005F51
:1009200015D072B1012A0CD0022A0AD0032A09D1AB
:1009300004E01AB1012A06D0022A03D1C96AC9010A
:1009400000D5012010BDC96AA142FAD010BD002A0D
:10095000F7D0012AF2D0022AF3D0032AF3D010BD37
:1009600030B50468256825F4802525600468636037
:100970008368402B036803D099600068C26030BD73
:100980009A600068C16030BD7047000010B53C211E
:10099000074801F0BDFB3C21064801F0B9FB0449C2
:1009A00000200968486203490968486210BD0000D8
:1009B00090370020F838002072B6FEE70B4810B5DB
:1009C0000268506A01B20A48C1614169C3691944A9
:1009D000416100215162074A1268536A1BB20362E7
:1009E0008369046A23448361516210BD90370020FB
:1009F000C0000020F83800202DE9F0410446876D42
:100A000000F0CEFA064694F835000025022806D0FC
:100A10008020606584F834500120BDE8F0812068B2
:100A2000016821F0160101602068416921F0800110
:100A30004161206C08B9A06C20B12068016821F0E8
:100A4000080101602068016821F0010101600CE0EB
:100A500000F0A6FA801B052807D920206065032036
:100A600084F8350084F83450D7E720680068C00760
:100A7000EED194F85C103F208840B860012084F8E3
:100A8000350084F834500020C7E790F8351002296B
:100A900003D08021416501207047052180F8351081
:100AA0000068016821F0010101600020704700002A
:100AB0002DE9F84304464FF00009CDF80090634853
:100AC0004FF41651A56D0068B0FBF1F72E6894F84D
:100AD0005C10082000FA01F131420FD021680A6849
:100AE00052070BD50A6822F004020A6094F85C10E1
:100AF0008840A860606D40F00100606594F85C106B
:100B00004FF0010808FA01F0304208D02168496925
:100B1000090604D5A860606D40F00200606594F895
:100B20005C1004208840304208D021680968890799
:100B300004D5A860606D40F00400606594F85C1016
:100B400010208840304218D021680968090714D560
:100B5000A86020680168490304D50068000308D52F
:100B6000A16C07E00168C90503D4016821F0080100
:100B70000160216C09B12046884794F85C10202060
:100B80008840304231D021680968C9062DD5A86057
:100B900094F8350005282068016806D0490347D538
:100BA000006800031DD4616C1CE021F01601016097
:100BB0002068416921F080014161206C08B9A06C76
:100BC00020B12068016821F00801016094F85C10F0
:100BD0003F208840A86084F8358084F83490216DE7
:100BE0001FE0E16B09B120468847606D00282BD0DB
:100BF000606DC00714D0052084F8350020680168B6
:100C000021F0010101600098401C0090B84203D817
:100C100020680068C007F6D184F8358084F83490E5
:100C2000E16C002910D001B02046BDE8F043084730
:100C30000168C905D5D4016821F01001016084F86C
:100C4000358084F83490CCE7BDE8F88318010020A3
:100C50002DE9F041044600F0A3F906465CB10220FC
:100C600084F83500002584F834502068016821F0AC
:100C7000010101600DE00120BDE8F08100F090F974
:100C8000801B052805D920206065032084F83500E5
:100C9000F2E720680068C007F0D122681168204898
:100CA0000140D4E901031843D4E903363343184320
:100CB00063691843A3691843E3691843236A184317
:100CC0000843616A042903D1D4E90B13194308438B
:100CD000106020684069666A20F0070130460E43C4
:100CE000012704280CD1A06A0643E06A40B12046DF
:100CF000FFF70CFE20B14020606584F83570BAE73C
:100D0000206846612046FFF7EDFD94F85C203F2106
:100D100091408160656584F835700020ACE7000083
:100D20003F8010F02DE9F0410446866D90F83400C4
:100D3000002501280DD0012084F8340094F8357086
:100D40000020012F07D084F8340002252846BDE892
:100D5000F0810220FBE7022784F8357060652046A9
:100D6000FFF7FEFD94F85C103F208840B0602068DB
:100D7000016841F016010160206C20B12068016813
:100D800041F0080101602068016841F00101016043
:100D9000DCE7000070B5044600F002F90546601C6F
:100DA00002D004480078044400F0FAF8401BA04246
:100DB000FAD370BD0C0100202DE9F84FDFF8ACA18B
:100DC0000022012403254FF00F090AF1040BAAF1B8
:100DD000040E00BF0B6804FA02F63340B3426ED132
:100DE0000F7907F00307012F01D0022F16D1876872
:100DF0004FEA420805FA08FC27EA0C07D1F80CC0B4
:100E00000CFA08FC4CEA070CC0F808C04768B74366
:100E10000E79C6F3001696403E4346600E79F643BF
:100E2000B6070AD0C6684FEA420C05FA0CF7BE4373
:100E30008F6807FA0CF73743C7600E7906F0030690
:100E4000022E10D1D60800EB8608D8F8206057078C
:100E50004FEAD76C09FA0CF7BE430F6907FA0CF793
:100E60003743C8F8207006684FEA420C05FA0CF7C1
:100E7000BE430F7907F0030707FA0CF73743076003
:100E80004E6816F4403F6BD0394E376847F48047C0
:100E90003760366822F0030706F480460096354E28
:100EA00007EB060CDCF8086897074FEA177809FA91
:100EB00008F7BE43304FB84202D100271FE04FE091
:100EC0002E4FB84201D1012719E02D4FB84201D170
:100ED000022714E02B4FB84201D103270FE02A4F1D
:100EE000B84201D104270AE0284FB84201D10527B2
:100EF00005E0274FB84201D1062700E0072707FA8F
:100F000008F73743CCF80878DAF800605746D1F88C
:100F100004C09E435FEACC2C00D51E433E60DBF844
:100F200000605F46D1F804C09E435FEA8C2C00D578
:100F30001E433E60DEF800607746D1F804C09E4351
:100F40005FEA8C3C00D51E433E60084F083F3E6878
:100F5000D1F804C09E435FEACC3C00D51E433E60FE
:100F6000521C102AFFF436AFBDE8F88F083C014050
:100F700044380240003001400000024000040240BA
:100F800000080240000C0240001002400014024021
:100F9000001802400AB1816170470904FBE70000B4
:100FA00001488068704700000C01002070B5040003
:100FB00025D094F83D00002520B984F83C50204607
:100FC00000F052FA242084F83D002068016821F0E6
:100FD000010101602068016841F40041016020685E
:100FE000016821F40041016000F0E6FB4D4A6168B0
:100FF000914201D84C4900E04C49884201D201207D
:1010000070BD4B492368B0FBF1F15E6826F03F06E6
:101010000E435E606368934206D94FF4967359435A
:101020004FF47A73B1FBF3F12368491C1E6A26F072
:101030003F06314319626168914210D84900401E51
:10104000B0FBF1F2521CC2F30B02042A01D20420BD
:1010500022E0B0FBF1F0401CC0F30B001CE0A268E2
:10106000F2B301EBC10303EB0116431EB3FBF6F32E
:101070005B1C43F480431B0549D092B301EBC102D2
:1010800002EB0111401EB0FBF1F0401CC0F30B005D
:1010900040F4804040F400402168CA694CF6FF7378
:1010A0009A431043C861D4E90710014320680268DD
:1010B00022F0C00211430160D4E90301014320681A
:1010C000826848F2FF339A4311438160D4E90501F5
:1010D00008432168CA6822F0FF021043C86001E09B
:1010E0000EE016E02068016841F00101016025640E
:1010F000202084F83D00256384F83E50002070BD18
:1011000001EB4106431EB3FBF6F35B1CB3E7012082
:10111000C2E701EB4101401EB0FBF1F0401CC0F3FF
:101120000B00B7E7A086010080841E0000093D0087
:1011300040420F002DE9FF4F83B09A46DDE9118749
:1011400093460446DDF84090FFF72AFF054694F8E1
:101150003D00202870D119230122744920460095B2
:1011600001F0F0FE0028F5D194F83C00012863D08E
:10117000012084F83C0020680168C90703D1016898
:1011800041F0010101602068016821F40061016003
:10119000222084F83D00402084F83E00002626648A
:1011A000C4F82490A4F82A80608D20856048E0620D
:1011B000CDE9007553465A462046049901F0C4FD16
:1011C000002879D1208DD0B1012821D002282068B3
:1011D00024D0416980690090208D032866D80128B9
:1011E0002BD0544902283B464FF00002009557D0BF
:1011F0008846204601F0A6FE00285DD13AE020682E
:10120000416981690091016841F4007101607DE0EC
:101210002068016821F480610160F0E7016821F431
:10122000806101602068016841F40061016020680C
:1012300041698069009069E075E02A463946204698
:1012400001F026FF88BB54E02068016841F400717A
:10125000016020680069616A0870606A401C606211
:10126000218D491E2185618D491E6185216809698D
:10127000017042E02068016821F48061016020680B
:101280000069616A0870606A401C6062208D401EBF
:101290002085608D401E60853B46002241460095BA
:1012A000204601F04FFE00B9CEE705E02A46394658
:1012B000204601F0EDFE18B1012007B0BDE8F08F27
:1012C00020680069616A0870606A401C6062208D55
:1012D000401E81B22185608D401E60852068426974
:1012E000D243520712D4032903D1016821F480614B
:1012F000016020680069616A0870606A401C606271
:10130000208D401E2085608D401E6085208D002828
:101310007FF462AF202084F83D0084F83E6084F8BA
:101320003C600020C9E70220C7E70000020010006F
:101330000000FFFF040001002DE9FF4F83B09A4633
:10134000DDE9119793460446DDF84080FFF728FE5B
:10135000054694F83D0020287FD1192301224049F9
:101360002046009501F0EEFD002876D194F83C006F
:10137000012872D0012084F83C0020680168C90768
:1013800003D1016841F0010101602068016821F486
:1013900000610160212084F83D00402084F83E0077
:1013A00000262664C4F82480A4F82A90608D208545
:1013B0002C48E062CDE9007553465A462046049910
:1013C00001F040FD70B930E02A463946204601F070
:1013D00097FE58B1206C042804D12068016841F4BC
:1013E00000710160012007B0BDE8F08F606A2168DC
:1013F00000780861606A401C6062218D491E89B2D4
:101400002185628D521E628522685369DB435B072A
:101410000BD469B100781061606A401C6062208D55
:10142000401E2085608D401E6085208D0028CBD118
:101430002A463946204601F059FD0028CAD154F801
:101440003D0B016841F400710160202004F81E0981
:10145000E67766770020C6E7FFE70220C3E70000D3
:10146000020010000000FFFF2DE9F04186B00446A5
:1014700014216846FFF719F82F4A2168DFF8BC806D
:1014800000242E4812250326042708F11008914253
:101490001CD1016841F002010160006802AA00F05D
:1014A00002000590C020CDE9000582E8D000694621
:1014B0002348FFF781FCD8F8001041F40011C8F868
:1014C0000010D8F8000000F4001031E01D4A9142ED
:1014D0002FD1016841F004010160016801F00401AD
:1014E0000591016841F0010101600068694600F062
:1014F000010005905015CDE9000502AA124882E8C6
:10150000D000FFF759FC4FF48070CDE9000502AA26
:10151000694682E8D0000D48FFF74EFCD8F800106D
:1015200041F40001C8F80010D8F8000000F40000F1
:10153000059006B0BDE8F08100540040303802400C
:1015400000040240005C004000080240000002402D
:101550000248816802781144816070470C010020C4
:101560000B4810B5016841F400710160016841F455
:1015700080610160016841F480710160032000F026
:101580006FF8002000F006F800F024F8002010BDED
:10159000003C024070B50D4D04464FF47A71287836
:1015A000B1FBF0F00A490968B1FBF0F000F03AFB3A
:1015B00048B9102C07D200222146501E00F030F806
:1015C00000206C6070BD012070BD00000C01002087
:1015D000180100200A4808B5016841F48041016003
:1015E000006800F4804000900548001F016841F049
:1015F00080510160006800F08050009008BD00003C
:1016000044380240002809DB00F01F02012191400C
:101610004009800000F1E020C0F800117047000090
:10162000F0B40E4B1B680C46C3F30223C3F107054D
:10163000042D00D90425191D072901D2002300E03B
:10164000DB1E012606FA05F1491E214099409E4005
:10165000761E16403143F0BC03F081B90CED00E07A
:10166000064900F0070208684FF6FF03184040EAF9
:101670000220034A10430860704700000CED00E0B0
:101680000000FA052DE9F0470E46050065D0DFF8A9
:101690001481D8F80000F7B200F00F00B04207D272
:1016A00088F80070D8F8000000F00F00B04254D164
:1016B00028683D4C810712D5400703D5206840F4C7
:1016C000E05020602878000703D5206840F460408F
:1016D00020602068A96820F0F00008432060287886
:1016E000C0072DD0304968680839012812D0022877
:1016F00013D0032811D00968890700292DDA216841
:1017000021F0030101432160FFF74AFC814641F2C9
:10171000883A0EE009688903EFE709688901ECE778
:10172000FFF73EFCA0EB0901514502D90320BDE8BB
:10173000F0872068696800F00C00B0EB810FEFD1F2
:10174000D8F80010404601F00F01B14207D90770E8
:10175000006800F00F00B04201D00120E7E72878D0
:10176000400705D52068E96820F4E0500843206070
:101770002878000706D52068296920F4604040EAEF
:10178000C100206000F038F82168084AC1F3031155
:10179000515CC8400649086006480068FFF7FAFE39
:1017A0000020C4E7003C024008380240DC6A000820
:1017B000180100201001002004480549006809684C
:1017C000044AC1F38221515CC840704718010020CF
:1017D00008380240EC6A00080448054900680968B6
:1017E000044AC1F34231515CC840704718010020DF
:1017F00008380240EC6A0008224810B5006810F072
:101800000C02214815D04110042A11D01D4C241F70
:10181000082A0FD00C2A0CD12268236802F03F025C
:101820005B0221D52068C0F38810A0FB010120E0F5
:10183000084610BD2268236802F03F025B0205D50E
:101840002068C0F38810A0FB010104E02168C1F307
:101850008811A1FB00010023FEF77EFD2168C1F382
:101860000141491C49000AE02168C1F38811A1FB2C
:1018700000010023FEF770FD2168C1F30271B0FB87
:10188000F1F010BD083802400024F4002DE9F84FB3
:1018900004007DD0DFF878B32078ABF10407C007EF
:1018A000A7F1040550D0DBF800105846C1F38101C0
:1018B00001290FD00168C1F38101022902D13968E1
:1018C000490207D40068C0F38100032809D13868B1
:1018D000400206D52868800336D560680028D8D035
:1018E00032E06068B0F5803F10D0B0F5A02F2868D6
:1018F00010D020F480302860286820F480202860F0
:101900006068A0B1FFF74CFB06460CE0286840F485
:101910008030F4E740F480202860F7E7FFF740FBD1
:10192000801B642876D828688003F7D50CE0FFF781
:1019300037FB064605E000BFFFF732FB801B64283B
:10194000F0D828688003F7D42078DFF8C8928007A1
:101950004FF0000A44D5DBF80010584611F00C0F88
:101960000FD00168C1F38101022902D1396849020F
:1019700007D50068C0F3810003280AD13868400207
:1019800007D42868800715D5E068012800D111E048
:101990003AE1E068B0B10120C9F80000FFF700FBB0
:1019A000064604E0FFF7FCFA801B0228BAD8286834
:1019B0008007F7D52868216920F0F80040EAC100C7
:1019C00028600DE0C9F800A0FFF7EAFA064604E037
:1019D000FFF7E6FA801B02281CD828688007F7D496
:1019E0002078000727D5DFF828828B48616908F145
:1019F0006C0881B101210160FFF7D2FA064604E0CC
:101A0000FFF7CEFA801B022804D8D8F80000800720
:101A1000F6D510E089E0C0F800A0FFF7C1FA06464D
:101A200005E000BFFFF7BCFA801B02287DD8D8F87C
:101A300000008007F6D42078400769D574484FF03D
:101A4000000838300068C0000BD471483830016895
:101A500041F08051016000684FF0010800F08050B3
:101A600000906E4E3068C00511D4306840F480702C
:101A70003060FFF795FA009006E000BFFFF790FA9C
:101A80000099401A022850D83068C005F6D5604E3B
:101A9000A068683601280FD00528306810D020F0E3
:101AA00001003060306820F004003060A068B8B1F8
:101AB000FFF776FA00900FE0306840F00100F4E79D
:101AC00040F004003060F7E7FFF76AFA0099411A26
:101AD00041F28830814264D830688007F4D50EE046
:101AE000FFF75EFA009007E0FFF75AFA0099411AF3
:101AF00041F28830814254D830688007F4D4B8F17C
:101B0000000F05D042483830016821F08051016053
:101B1000A069A8B3DBF80010C1F38101022947D006
:101B20000228C9F860A005D000E03AE0FFF738FAD3
:101B3000044639E0FFF734FA064604E0FFF730FACE
:101B4000801B02282DD828688001F7D4F4E907010A
:101B50000843E168324A490802EB0141A26841EAC0
:101B600082110843217C40EA0160217D40EA017036
:101B700038600120C9F86000FFF712FA044606E059
:101B800044E000BFFFF70CFA001B022809D82868C0
:101B90008001F7D53AE000BFFFF702FA001B0228E8
:101BA00002D90320BDE8F88F28688001F4D42DE025
:101BB0000128F7D03868E26900F48001914223D10E
:101BC000226A00F03F0191421ED147F6C071626A5D
:101BD0000140B1EB821F17D1A26A4FF0FF3300F42E
:101BE000403103EB5202B1EB024F0DD194F82C209F
:101BF00000F07061B1EB026F06D194F8301000F084
:101C0000E040B0EB017F01D00120CBE70020C9E725
:101C10000838024000004742800E474200700040F2
:101C20000000FFFF10B5401EB0F1807F01D30120FE
:101C300010BD4FF0E02460610F21601702F08FFEAD
:101C40000020A06107202061002010BD7047704770
:101C500070B590F83C20012A32D0012480F83C4035
:101C6000022280F83D2003685A689D6822F07006C1
:101C70000A6832435A60134B02689A4214D0B2F198
:101C8000804F11D0104B9A420ED0104B9A420BD07D
:101C90000F4B9A4208D00F4B9A4205D00E4B9A42F6
:101CA00002D00E4B9A4204D1496825F080031943B3
:101CB000916080F83D40002180F83C10084670BDDE
:101CC000022070BD000001400004004000080040F8
:101CD000000C00400004014000400140001800409A
:101CE00010B5040003D094F83D0010B107E00120C6
:101CF00010BD002084F83C00204600F01FF80220B0
:101D000084F83D00211D206802F032FA012084F899
:101D1000460084F83E0084F83F0084F8400084F8D0
:101D2000410084F8420084F8430084F8440084F8B9
:101D3000450084F83D00002010BD000008B5016892
:101D40002548814208D12548016841F00101016020
:101D5000006800F001000BE02048214A001F91427A
:101D600008D1016841F002010160006800F0020042
:101D7000009008BD1B4A91420ED1016841F0080154
:101D800001600068002200F008000090012132206C
:101D9000FFF746FC322010E0134A914211D101684E
:101DA00041F0100101600068002200F01000009076
:101DB00011463620FFF734FC3620BDE80840FFF717
:101DC00021BC0A4A9142D4D1016841F0200101604E
:101DD000006800F02000CBE70000014044380240DA
:101DE00000040040000C00400010004000140040BF
:101DF00090F83D10012901D001207047022180F8A0
:101E00003D1000681149884214D0B0F1804F11D0C4
:101E10000F4988420ED00F4988420BD00E498842A4
:101E200008D00E49884205D00D49884202D00D499C
:101E3000884204D1816801F00701062903D00168B6
:101E400041F00101016000207047000000000140E6
:101E50000004004000080040000C00400004014065
:101E6000004001400018004090F83D10012901D0C9
:101E700001207047022180F83D100168CA6842F0D5
:101E80000102CA6000681149884214D0B0F1804F45
:101E900011D00F4988420ED00E4988420BD00E490E
:101EA000884208D00D49884205D00D49884202D0A9
:101EB0000C49884204D1816801F00701062903D04A
:101EC000016841F0010101600020704700000140FD
:101ED0000004004000080040000C004000040140E5
:101EE000004001400018004070B5044690F83C00E6
:101EF0000025012817D0012684F83C60022084F8D0
:101F00003D002068826822F0770222F47F428260DE
:101F10000868502838D00DDC20284FD005DC90B35D
:101F2000102811D14AE0022070BD302846D0402848
:101F30000AD13BE060282FD070280DD0B0F5805F2B
:101F400003D0B0F5005F12D0012584F83D60002079
:101F500084F83C00284670BDCB68D1E90121206897
:101F600002F07BF92068816841F0770109E0CB68D5
:101F7000D1E90121206802F070F92068816841F4FC
:101F800080418160E1E719E0CA684968206802F091
:101F900039FA5021206806E0CA684968206802F0D2
:101FA00042FA6021206802F062F9CEE7CA68496807
:101FB000206802F027FA40212068F4E722680146F1
:101FC0001046F0E72DE9F0410D46040003D094F8E7
:101FD0003D0018B108E00120BDE8F081002084F840
:101FE0003C00204600F040F8022084F83D002068C4
:101FF000816844F2070291438160211D206802F04C
:10200000B7F8226890689169166A2B68AF69034334
:1020100040F20330814341EA0721A868EF69084391
:102020004FF6FC418843E96840EA072001432869EC
:102030002F6A000140EA0730084369686D6926F09D
:10204000AA0646EA0515294393602268906154F870
:10205000460B0162012004F81F09E0752076E07646
:102060002077A0750020B7E730B587B0044614216B
:102070006846FEF71AFA2268002121480323022449
:10208000B2F1804F20D01F4DAA421BD11C4A1432FE
:10209000156845F002051560126802F0020205920B
:1020A000026842F004020260006800F0040005903B
:1020B000C0200090CDE90141CDE9031369461248E3
:1020C000FEF77AFE07B030BD0D4A1032156845F0B4
:1020D00001051560126802F001020592026842F0E3
:1020E000010202600068009300F001000590CDE954
:1020F00001410120CDE9031069460448E0E70000F2
:102100003038024000040140000802400000024054
:1021100070B590F83E60044690F83F5090F8423019
:1021200090F84320022021B104290ED0012E1BD1AA
:1021300014E0012E18D1012B16D184F83E0084F84A
:10214000420001220021206820E0012D0CD1012A4B
:102150000AD184F83F0084F8430014E0012D03D134
:10216000012B01D1012A01D0012070BD84F83E006D
:1021700084F83F0084F8420084F8430001220021E3
:10218000206802F05DF801220421206802F058F86E
:102190002068016841F001010160002070BD7047B6
:1021A0002DE9F04104460068C66805694FF0000754
:1021B000A90713D5B10711D5F91E016101202077B8
:1021C000206880698007204602D0FFF7E8FF04E01E
:1021D00000F0BAF8204600F04CF92777680716D5CA
:1021E000700714D521686FF0040008610220207781
:1021F0002068806910F4407F204602D0FFF7CFFFAF
:1022000004E000F0A1F8204600F033F92777280712
:1022100015D5300713D521686FF008000861042038
:1022200020772068C0698007204602D0FFF7B7FFFB
:1022300004E000F089F8204600F01BF92777E80653
:1022400016D5F00614D521686FF01000086108203B
:1022500020772068C06910F4407F204602D0FFF745
:102260009EFF04E000F070F8204600F002F92777A6
:10227000E80708D0F00706D021686FF00100086178
:10228000204600F05BF9280608D5300606D52168FF
:102290006FF0800008612046FFF7D8FC680608D57B
:1022A000700606D521686FF040000861204600F0F6
:1022B000EBF9A8060AD5B00608D521686FF0200012
:1022C00008612046BDE8F041FFF7C1BCBDE8F081E0
:1022D00030B587B0044614216846FEF7E6F8164983
:1022E0002068884226D115480024016841F0010188
:1022F0000160016801F001010591016841F00201EE
:1023000001600068022500F002000590C0200090E6
:10231000CDE9015469460A48CDE90345FEF74CFD75
:1023200003200090CDE9015469460648CDE90345F4
:10233000FEF742FD07B030BD0004004030380240D7
:102340000000024000040240704770B5044690F857
:102350003C0000260D4601280FD0012084F83C00E7
:102360006AB1042A1DD0082A2FD00C2A3FD001269A
:10237000002084F83C00304670BD022070BD20680B
:1023800001F07EFF2068816941F0080181612068C9
:10239000816921F004018161206881692A69114302
:1023A00011E0206801F09CFF2068816941F4006120
:1023B00081612068816921F480618161206881697F
:1023C0002A6941EA02218161D2E7206801F0BEFF5B
:1023D0002068C16941F00801C1612068C16921F02C
:1023E0000401C1612068C1692A69114311E02068B4
:1023F00001F0E0FF2068C16941F40061C16120681B
:10240000C16921F48061C1612068C1692A6941EA1A
:102410000221C161ACE710B5040003D094F83D007F
:1024200010B107E0012010BD002084F83C002046D8
:1024300000F01EF8022084F83D00211D206801F004
:1024400097FE012084F8460084F83E0084F83F009F
:1024500084F8400084F8410084F8420084F8430086
:1024600084F8440084F8450084F83D00002010BD45
:102470007047704710B50446022249B104290ED0B6
:10248000082913D094F84100012816D0012010BD6E
:1024900094F83E000128F9D184F83E200FE094F82A
:1024A0003F000128F2D184F83F2008E094F8400072
:1024B0000128EBD184F8402001E084F8412001227A
:1024C000206801F0BDFE16492068164A884201D0F6
:1024D000904203D1436C43F4004343642068884234
:1024E00013D0B0F1804F10D00F4988420DD00F4962
:1024F00088420AD00E49884207D0904205D00D4943
:10250000884202D00C49884204D1816801F0070159
:10251000062903D0016841F001010160002010BDCF
:102520000000014000040140000400400008004099
:10253000000C004000400140001800402DE9FE4F13
:1025400007464548DFF8149187426ED1D9F8040058
:1025500001286AD1434E424A0021084640F6282A03
:10256000A6F5026BA6F58265145C131893F802C0F9
:1025700093F801804FEACC1C0CEB580C93F80380C5
:102580001B79745408EB03235C462BF811C025F823
:102590001130401D80B2491C5045E5D3FEF700FDC7
:1025A000024631480068C0F1000C3048036899F8D1
:1025B00000108DE80A10D9F80C1099ED060A8BB2BC
:1025C000AA21552002F03CFF29494FF402784FF030
:1025D000FF33A1F800800222264800F008FB002209
:1025E00025491046C446335C8B54521C34F81030D5
:1025F00092B28B54521C34F8103092B21B0A8B5496
:10260000521C35F8103092B28B54521C35F81030F1
:1026100092B21B0A8B54521C401C92B26045E2DB02
:1026200052461549134800F033FB1448874210D135
:10263000FEF7C4F91249134800F0D8FE104890ED97
:10264000160B51EC100B02F02FFF00EE100A89ED73
:10265000060ABDE8FE8F000020380020E8000020B8
:10266000E40C0020701F0020D8000020D4000020BF
:10267000B52B0020D03900208D21002068380020A3
:10268000E0350020A03600207047704770470000FA
:10269000F8B5016804460868CA684B6910F00F0F66
:1026A0004FF0000559D003F0010602F4907737434C
:1026B00065D0C10705D0D10503D5616C41F001019A
:1026C0006164410705D5D90703D0616C41F002016F
:1026D0006164810705D5D90703D0616C41F004011D
:1026E0006164010707D502F02001314303D0616C1A
:1026F00041F008016164616C00293AD0800604D57C
:10270000900602D5204601F080FF20684069616C88
:10271000C0F38010090700D460B3204601F040FFE9
:1027200020684069400621D52068143050E8001F19
:1027300021F0400140E80012002AF5D1E06BA8B179
:1027400072490165E06BFEF7A0F9002811D0E06B3B
:10275000016D01B0BDE8F040084783060FD5930630
:102760000DD52046BDE8F84001F04FBF2046FFF7E9
:102770008DFFF8BD2046FFF789FF6564F8BD266B25
:102780002023012E7ED1C6067CD5D6067AD50868D0
:102790004868009048694FF0020640064DD5E26B4C
:1027A000106840684FF480770004000C3AD0A18D87
:1027B000814237D9E085D069B8422DD020680C30ED
:1027C00050E8001F21F4807140E80012002AF5D182
:1027D0002068143050E8001F21F0010140E8001289
:1027E000002AF5D12068143050E8001F21F0400184
:1027F00040E80012002AF5D184F8423025632068B1
:102800000C3050E8001F21F0100140E80012002AAF
:10281000F5D1E06BFEF7F0F86663A08DE18D401A0C
:1028200081B206E0A18D8142A8D1D069B842A5D17C
:1028300066632046FFF729FFF8BDA08DE18D401AA1
:1028400081B2E08D0028F7D00029F5D020680C3047
:1028500050E8002F22F4907240E80027002FF5D1B5
:102860002068143050E8002F22F0010240E80027D1
:10287000002FF5D184F84230256320680C3050E8F1
:10288000002F00E006E022F0100240E80023002BB9
:10289000F3D1CDE705062BD5150629D594F84100CF
:1028A0002128C9D1A068B0F5805F01D12069B0B1FD
:1028B000206A411C2162216800784860E08C401E3B
:1028C0000004000CE084B7D12068C16821F08001C9
:1028D000C1602068C16841F04001C160F8BD206A54
:1028E0000088C0F308004860206A801C2062E5E789
:1028F0004006F3D55006F1D5CA68204622F04002C2
:10290000CA6084F8413000F005FAF8BD5944000867
:1029100070B5040004D094F84100002510B106E021
:10292000012070BD84F84050204600F023F8242098
:1029300084F841002068C16821F40051C16020463C
:1029400001F0C4FE2068016921F490410161206812
:10295000416921F02A0141612068C16841F40051B8
:10296000C1606564202084F8410084F842006563FA
:10297000002070BD2DE9F04F87B00646142168464F
:10298000FDF793FD6948684B1038D6F800C06749D9
:1029900002220325DFF898B1002407154FF0006AE2
:1029A0009C4534D10B6843F400230B60096801F4A3
:1029B00000210591016841F0040101600068694649
:1029C00000F004000590A8028DE83500082004906E
:1029D0005846FEF7F1F9584D56482860C5E901A45C
:1029E000C5E9034780156C61C5E906402C6228469D
:1029F0006C62FEF72DF908B1FDF7DEFFF5630022EA
:102A000006213420AE63FEF70BFE342088E0DFF8A9
:102A10002C810723C4451AD10E6846F400360E6097
:102A2000096801F400310591016841F0010101607C
:102A30000068049300F0010005900C208DE835003B
:102A400069463F48FEF7B8F907B0BDE8F08FDFF8F8
:102A5000F480C445F8D1D1F800C04CF4802CC1F802
:102A600000C0096801F480210591016841F004016A
:102A70000160016801F004010591016841F0020163
:102A8000016000680DF1080C00F0020005902020A4
:102A9000CDE9000299468CE83002904669465846D6
:102AA000FEF78AF90DF1080C69468CE83002CDE991
:102AB00000782548FEF780F91F4D1E48603518380C
:102AC0002860C5E901A4C5E903476C61AC61EC610C
:102AD0002C62D04628466C62FEF7BAF808B1FDF7C2
:102AE0006BFFF563AE63144D1248C0351830E5E84E
:102AF0000208402091C5104845F81449C030AC6127
:102B0000EC612C626C62FEF7A3F808B1FDF754FF8C
:102B1000B563002205212720AE63FEF781FD272043
:102B2000FEF770FD90E70000004C00404038024086
:102B30000008024040600240183A00200044004073
:102B400000000240004800400004024090F842307B
:102B5000202B01D00220704721B11AB1002303635A
:102B600001F03ABE0120704790F84230202B01D08E
:102B70000220704721B11AB10023036301F07CBE2B
:102B80000120704700681149884203D11049012093
:102B9000086070470F498842FBD10F480168072938
:102BA000F7DC0E4A0E4B12785A54491C0160072973
:102BB00004D0012209490B48FFF7D6BF0821016064
:102BC00040F6282208490748FFF7C0BF00480040E8
:102BD000FC000020004C00400000002018000020F5
:102BE0002C01002040390020E40C002070472DE922
:102BF000F843044690F84100984616460D462028B2
:102C000002D00220BDE8F88385B17EB10020606467
:102C1000212084F84100FEF7C3F9A6848146E684AA
:102C2000A0682027B0F5805F02D003E00120E9E72B
:102C3000206910B12E4600250EE000260CE0802110
:102C4000204601F034FEA8B9C6B116F8010B216880
:102C50004860E08C401EE084E08C4B464FF0000260
:102C6000CDF800800028EAD14FF04001204601F065
:102C70001EFE40B184F841700320C3E735F8020B13
:102C8000C0F30800E3E784F841700020BAE70000D1
:102C900070B5044690F84100202801D0022070BD94
:102CA00001B3FAB12162A284E2840020606421238E
:102CB00084F84130A56B144BEB63A56B134B2B646D
:102CC000A56B134BEB64A36B186520681346A56BCB
:102CD000021D2846FEF726F830B11020606420203F
:102CE00084F84100012070BD21686FF04000086049
:102CF0002068143050E8001F41F0800140E80012C5
:102D0000002AF5D1002070BD554500089745000800
:102D10006744000870477047FEE701684A69D2437C
:102D200052050FD46FF480624A61002140F8301FD1
:102D3000202242738173026942F00402026101732E
:102D400001207047002070472DE9F84F04460068C5
:102D500089460B9D01689846174641F480610160E1
:102D60002068016841F48071016000954FF0011BFB
:102D70000022594620460A9B00F0E4F84FF4007AFE
:102D800040B120680068C00501D5C4F840A0032008
:102D9000BDE8F88F216809F0FE0008612B4628493C
:102DA00020460A9A00F016F9F0BB20684169806954
:102DB00000902A4620460A9900F0A2F940B1206C02
:102DC00004283AD12068016841F40071016034E0C0
:102DD000FEB2B8F1010F09D02168380A08612A460D
:102DE00020460A9900F08CF90028E8D12068066195
:102DF0002A4620460A9900F083F90028DFD120688E
:102E0000016841F480710160009500225946204616
:102E10000A9B00F097F80028B3D1216809F0FF0061
:102E200040F00100086100E007E02B46044920461D
:102E30000A9A00F0CFF80028AAD00120A8E70000E5
:102E4000020001002DE9F843044600680D46DDE963
:102E5000089701689846164641F4807101604B4618
:102E600000224FF001112046009700F06BF848B1A6
:102E700020680068C00502D54FF40070206403206C
:102E8000BDE8F883216805F0FE0008613B464A462C
:102E90001549204600F09EF888B92068416980698C
:102EA00000903A464946204600F02AF948B1206C85
:102EB000042804D12068016841F4007101600120F8
:102EC000DEE7F5B2B8F1010F09D02168300A0861D8
:102ED0003A464946204600F013F90028E7D1206819
:102EE00005610020CCE700000200010070B5164625
:102EF0000D4604461EE02046FFF70FFF08B10120F3
:102F000070BD681C16D0FEF74BF8801BA84200D895
:102F100085B920684069C04340070BD5002044F8BC
:102F2000300F20216173A073216941F020012161DC
:102F30002073E4E720684069C0434007DBD40020E9
:102F400070BD00002DE9F047984617460D4604462F
:102F5000C1F30746DDF820902AE000BFB8F1FF3F3B
:102F600026D0FEF71DF8A0EB0901414502D8B8F1C3
:102F7000000F1DD12068012E16D0806925EA0000BF
:102F80000004000C12D00020B84211D1002044F8F7
:102F9000300F20216173A073216941F0200121616C
:102FA00020730120BDE8F0874069E7E70120EBE7E7
:102FB0002068012E0AD0806925EA00000004000C78
:102FC00006D00020B842C9D00020EBE74069F3E703
:102FD0000120F7E72DE9F047984616460D460446CE
:102FE0004FF000094FF0200AC1F3074723E02068A3
:102FF0004069C043400515D42068016841F4007160
:10300000016021686FF480604861C4F8309084F8F2
:103010003DA084F83E90216C41F00401216484F8C5
:103020003C9021E0701C06D0FDF7BAFFA0EB080031
:10303000B04203D816B1012F1FD021E02068012F24
:1030400015D0806925EA00000004000C18D000BFEC
:1030500044F8309F84F80DA084F80E90216941F067
:103060002001216184F80C900120BDE8F0874069BF
:1030700025EA00000004000CEAD12068406901E064
:103080002068806925EA00000004000CAFD1ECE75D
:103090002DE9F041002590460E460446202728E001
:1030A0004069C043C0060CD454F8301B6FF01000C8
:1030B000486144F810596777A577206A2062257720
:1030C00014E0FDF76DFFA0EB0800B04200D886B910
:1030D00020684069C04340060BD544F8305F6773F1
:1030E000A573206940F02000206125730120BDE810
:1030F000F08120684169C9434906D1D40020F6E730
:1031000070B516460D4604461EE02046FFF705FE44
:1031100008B1012070BD681C16D0FDF741FF801B6F
:10312000A84200D885B920684069C04300060BD585
:10313000002044F8300F20216173A073216941F011
:10314000200121612073E4E720684069C043000644
:10315000DBD4002070BD70B504462DED108B82B01D
:10316000B0EE429AF0EE629AB0EE40FAF0EE60FAFB
:1031700090ED08EB51EC110B53EC1E2B02F080FE8E
:1031800041EC100B51EC190B53EC102B02F06CFCC2
:1031900094ED061B53EC112B02F0B8F994ED10DB03
:1031A00041EC1A0B53EC1D2B51EC190B02F05CFC9B
:1031B0000E4646EC100B94ED0CCB054653EC1C2B45
:1031C00051EC100B02F05CFE94ED0EBB53EC1B2B8C
:1031D00002F056FE94ED001B53EC112B02F096F911
:1031E00053EC192B02F040FC94ED0A1B53EC112B0D
:1031F00002F08CF946EC105B41EC180B53EC1C2BE5
:1032000051EC100B02F064FD46EC105B41EC1C0B22
:1032100053EC1B2B51EC100B02F05AFD94ED020BFA
:1032200041EC1B0B53EC192B51EC100B02F01CFC66
:1032300053EC1D2B02F06AF941EC100B51EC180B0A
:103240008DED000B94ED040B53EC102B02F05EF9A6
:1032500041EC190B51EC180B53EC192B02F00AFA44
:1032600041EC1D0B53EC192B51EC1B0B02F002FA35
:1032700041EC190B53EC1A2B51EC1F0B02F000FE22
:1032800041EC1F0B51EC1D0B53EC1F2B02F0ECFB20
:1032900053EC1A2B02F03AF941EC1A0B53EC1F2BAA
:1032A00084ED06AB51EC190B02F0DEFB53EC1E2B48
:1032B00002F02CF9C4E9080153EC182B51EC1D0B5A
:1032C00002F0D2FB53EC182B02F002FDC4E90A0114
:1032D00053EC1C2B51EC1D0B02F0C6FB53EC1C2BCA
:1032E00002F0F6FCC4E90C0153EC182B51EC190B5D
:1032F00002F0BAFB53EC1B2B02F0EAFCC4E90E010E
:1033000053EC1C2B51EC190B02F0AEFB9DED000BA6
:1033100053EC102B02F0DCFCC4E9100102B0B0EE5B
:103320004A0AF0EE6A0ABDEC108B70BD10B501229E
:1033300007490848FFF718FCFDF7ECF9FDF700FA1C
:103340004FF4FA60FDF7FAF9BDE81040FDF730BA26
:1033500018000020403900202DE9F04186B0804659
:10336000012504A8CDE9000564242B467522D0214F
:1033700002944046FDF7DEFE9DF81000682803D059
:10338000012006B0BDE8F081002703AE8DF80C7077
:103390000096CDE9015401236B22D0214046FDF770
:1033A000CBFF07208DF80C000096CDE901540123D6
:1033B0001922D0214046FDF7BFFF8DF80C70009612
:1033C000CDE9015401231C22D0214046FDF7B4FF72
:1033D0008DF80C700096CDE9015401231B22D021F9
:1033E0004046FDF7A9FF0020CBE700002DE9F04F94
:1033F0000C462DED0C8B87B09FEDB89BDFF8E4B247
:103400009FEDB9DB9FEDBACB9FEDBBBB64230E22D2
:1034100003A98DE80E0001233B22D021FDF78AFE8F
:10342000BDF80C0040BA00B22080BDF80E1049BAB9
:103430000EB26680BDF8101049BA0DB2A580BDF875
:10344000121049BA0FFA81F9BDF8141049BA09B23D
:1034500021848846BDF8161049BA09B261848A46AB
:10346000BDF8181049BA0FB2A78402F097FA9FED81
:10347000A48B53EC182B02F0F7FAC4E90201304692
:1034800002F08CFA53EC182B02F0EEFAC4E90401B6
:10349000284602F083FA9FED9C1B53EC112B02F09F
:1034A000E9F800EE109AB8EEC00A9FED991AC0EE46
:1034B000010A9FED980AC4E90601404630EE800AF1
:1034C00084ED100A02F06AFA9FED938B53EC182BEF
:1034D00002F0D0F8C4E90A01504602F05FFA53EC5A
:1034E000182B02F0C7F8C4E90C01384602F056FA6E
:1034F00053EC182B02F0BEF841EC100B84ED0E0BD0
:103500009FED871B53EC112B02F0ACFB0CD294ED1A
:103510000E0B9FED851B51EC100B53EC112B02F0A1
:1035200067FA01D284ED0E9BFDF73AFDDBF8081037
:103530005D46401A02F049FA9FED7D1B53EC112BBA
:1035400002F098F841EC1A0BFDF72AFDA8602088DC
:1035500010FB00F1A08810FB001002F01FFA41ECF4
:10356000100B01F083FCB0EE408AF0EE608A53EC61
:10357000192B51EC180B02F0D5F913D0B4F9020055
:1035800002F00CFA53EC182B02F074F841EC100B1B
:1035900001F0F6F953EC1D2B51EC100B02F064FA1C
:1035A00041EC190BB4F9040002F0F8F941EC180BE6
:1035B000B4F90000404202F0F1F941EC100BB0EE1A
:1035C000481AF0EE681A01F047FB53EC1D2B51EC42
:1035D000100B02F049FA41EC180B53EC1C2B02F0D3
:1035E00007FA08D294ED140B53EC1B2B51EC100B83
:1035F00002F038FB0FD353EC1B2B51EC180B02F0ED
:1036000031FB11D294ED140B53EC1C2B51EC100B2D
:1036100002F0EEF908D23348583080ED068B84ED85
:10362000148B94ED140B0FE02E4894ED0C1BB0EEB0
:103630004A2AF0EE6A2AB0EE480AF0EE680A5830DC
:10364000FFF789FD84ED140B01F006FC53EC1B2BF6
:1036500051EC100B02F006FB07D294ED0A0B51EC73
:10366000100B01F014FFC4E90A011E4894ED0A1B77
:10367000B0EE4A2AF0EE6A2AB0EE490AF0EE690A84
:103680001030FFF768FD84ED120B94ED0E0B53EC38
:103690001A2B51EC100B02F0E7F995ED000A41EC02
:1036A000180B10EE100A02F0D5FC53EC182B01F0A9
:1036B0002DFF01F0F9FE00EE100A85ED000A95EDF0
:1036C000000A95ED000A10EE100A02F0C3FCC4E9EE
:1036D000160107B0BDEC0C8BBDE8F08F00000000B8
:1036E0000000000020000020F8C1631ADCA54C4057
:1036F00000000000008056C000000000008056401E
:10370000000000000000103F000000000029CC4035
:103710000000AA43B81E1242000000000060604092
:10372000000000000000F0BF000000000000F03FBB
:103730000000000000408F40224808B502680021C8
:1037400042F400120260026802F400120092026861
:1037500042F48002026000681B4A00F4800000907E
:103760001A48C0E90021802282609200C2605200A3
:10377000C0E9042181610422C161C0E90812032269
:10378000C0E90A210163FDF763FA08B1FDF714F9F6
:10379000002211460C20FDF743FF0C20FDF732FFFD
:1037A000002211460D20FDF73BFF0D20FDF72AFFFB
:1037B000002211460E20FDF733FFBDE808400E2021
:1037C000FDF720BF30380240106402404036002030
:1037D00030B587B014216846FCF767FE1F48002407
:1037E000016841F004010160016801F004010591E4
:1037F000016841F080010160016801F080010591DC
:10380000016841F001010160016801F001010591C9
:10381000016841F0020101600068114D00F00200F2
:103820000590002220212846FDF7B4FB4FF40050FC
:1038300000904FF40410CDE9010469460948FDF7F2
:10384000BBFA202000900120CDE9010469462846FA
:103850000394FDF7B1FA07B030BD000030380240E4
:1038600000000240000802400D4810B50B490160FD
:103870000C49416000214FF480428160C0E903128D
:1038800041618161C1610162FDF790FB002803D0B5
:10389000BDE81040FDF790B810BD00000054004096
:1038A000A0360020A08601000D4810B50B4901602C
:1038B0000C49416000214FF480428160C0E903124D
:1038C00041618161C1610162FDF770FB002803D095
:1038D000BDE81040FDF770B810BD0000005C00406E
:1038E000F4360020A086010010B586B000241748E9
:1038F0000094019402940394049413490594C0E93C
:1039000000144FF6FF71C0E9024104614461846113
:10391000FEF7E6F908B1FDF74FF84FF4805000903C
:1039200069460A48FEF7E0FA08B1FDF745F8049445
:1039300004A906480594FEF78BF9002801D0FDF78D
:103940003BF806B010BD00000000014048370020E1
:1039500010B58CB024216846FCF7A7FD002415485B
:1039600009944FF080410A94C0E90014611EC0E937
:103970000241046184610320CDE900040120CDE906
:1039800002040494CDE90540079469460948089467
:10399000FEF718FB08B1FDF70FF8099409A90548CF
:1039A0000A94FEF755F9002801D0FDF705F80CB090
:1039B00010BD00009037002030B58DB00024079472
:1039C000089409940A940B941C2168460C94FCF703
:1039D0006CFD2E482C49C0E9001442F2CF01C0E929
:1039E0000241802104618161FEF77AF908B1FCF798
:1039F000E3FF4FF48050079007A92448FEF774FABC
:103A000008B1FCF7D9FF2148FEF705FD08B1FCF726
:103A1000D3FF0B940BA91D480C94FEF719F908B1BC
:103A2000FCF7CAFF6020009042F2D005CDE90154B6
:103A30000022694615480494FEF787FC08B1FCF79C
:103A4000BBFF41F288340422694610480194FEF716
:103A50007CFC08B1FCF7B0FF082269460B480195D1
:103A6000FEF773FC08B1FCF7A7FF0C226946074874
:103A70000194FEF76AFC08B1FCF79EFF0348FEF7CD
:103A800027FC0DB030BD000000040040D8370020F6
:103A900010B586B000241748009401940294039452
:103AA000049413490594016040F24731C0E90114C0
:103AB00044F61F61C0E903148461FEF711F908B1EF
:103AC000FCF77AFF4FF48050009069460948FEF7F2
:103AD0000BFA08B1FCF770FF049404A9054805949B
:103AE000FEF7B6F8002801D0FCF766FF06B010BD5F
:103AF000000C0040203800201CB500240E48009423
:103B00000C490194016042F2CF01C0E90114632124
:103B10008461C160FEF7E4F808B1FCF74DFF009442
:103B2000694605480194FEF793F8002801D0FCF798
:103B300043FF1CBD00100040683800201CB5002465
:103B40000E4800940C49019401605321C0E901140E
:103B50004FF6FF718461C160FEF7C2F808B1FCF74F
:103B60002BFF0094694605480194FEF771F8002880
:103B700001D0FCF721FF1CBD00140040B03800202C
:103B800010B58CB024216846FCF78FFC0024164841
:103B9000099414490A94C0E900144FF6FF71C0E972
:103BA00002410461446184610320CDE900040120E5
:103BB000CDE902040494CDE90540079469460A481A
:103BC0000894FEF7FFF908B1FCF7F6FE099409A97D
:103BD00005480A94FEF73CF8002801D0FCF7ECFEFB
:103BE0000CB010BD00040140F83800200C4810B59E
:103BF0000A4901604FF4E1214160002181600C22FB
:103C0000C160C0E904128161C161FEF781FE002834
:103C100003D0BDE81040FCF7CFBE10BD004C004003
:103C2000403900200C4810B50A4901604FF4E131D9
:103C30004160002181600C22C160C0E904128161F1
:103C4000C161FEF765FE002803D0BDE81040FCF717
:103C5000B3BE10BD00440040883900200C4810B5A8
:103C60000A4901604FF461214160002181600C220A
:103C7000C160C0E904128161C161FEF749FE0028FC
:103C800003D0BDE81040FCF797BE10BD00480040CF
:103C9000D0390020FEE7FEE770B500242146002061
:103CA00001F0DDF90025002001F0FEF96D1CEDB2F8
:103CB000802DF8D3641CE4B2082CEFD370BD000053
:103CC00030B587B0182208A16846FCF7BCFB002479
:103CD0006D46285D01F0D6F9641CE4B2172CF8D3C8
:103CE000FFF7DAFF07B030BDAED580A83FD3004064
:103CF000A1C8DA1281CFD9F1DB40A4A68D14AF00A0
:103D00002DE9F041203A0E460746D5B201F0A7F959
:103D10000D48002400EB0515285D01F0C5F9641C71
:103D2000E4B2082CF8D3761CF1B2384601F097F9CA
:103D300000242819007A01F0B7F9641CE4B2082CB9
:103D4000F7D3BDE8F08100008A6100082DE9F04159
:103D50000746144688461D461846FCF7A7FA06464D
:103D600002462946204601F05FF900240AE0305D52
:103D700041463030C2B207EBC400C0B2FFF7C0FF0B
:103D8000641CE4B2AC42F2D33046BDE8F041FCF72B
:103D9000BCBA00002DE9F04115460F460646002446
:103DA00008E000BF06EBC400C0B23946FFF7A8FF29
:103DB000641CE4B22A5D002AF4D1BDE8F0812DE94B
:103DC000F0411E462DED028BB0EE408A1746B5EE4F
:103DD000C08A8846F1EE10FA054606D22D22FFF77A
:103DE0008FFF0835EDB2B1EE488A3B46BCEEC80AFB
:103DF0004146284610EE104A2246FFF7A7FF05EB82
:103E0000C700C5B22E2241462846FFF779FF31464A
:103E10000A2001F01CF900EE100A0835E8B2F8EEAD
:103E2000400A00EE104A33464146B8EE400A38EEEA
:103E3000400ABDEC028BBDE8F04120EE800ABCEEEA
:103E4000C00A10EE102AFFF781BF000010B51A4912
:103E500002202DED028B0870184890ED160B51ECE6
:103E6000100B01F021FB08EE100A02230722B0EE2E
:103E7000480A19460020FFF7A2FFDFED110AB0EE55
:103E8000480AB0EE601A01F021F900EE100A4FF472
:103E90009650B8EEC08A01F069FA9FED0A0A38EE32
:103EA000000ABDEC028BBDE81040BDEEC00A10EE6A
:103EB000100A01F0A7BA0000E8000020E035002059
:103EC000000000000000964580EC030A9FED060A02
:103ED00080ED030A80ED040A80ED050AC0ED061AA4
:103EE00080ED072A704700000000000080ED030A03
:103EF000704700002DE9F047374D2DED068BB0EEF1
:103F0000408A95ED160B51EC100B01F0CDFA00EE46
:103F1000900A334EDFF8CC9070EE889A9FED2F8A8E
:103F2000B2EE0EAAF1EE04AA41F294174FF07E58B9
:103F300095ED160B51EC100B01F0B6FA00EE100ADD
:103F400079EEC08A38EEC89A28EE8A0AB0EE688AFE
:103F500009EE2A0A10EE100AB04202DD9FED220A95
:103F600005E010EE100A484501D99FED200AF0EE59
:103F7000C00AFCEEE00A10EE900A84B2BC4200D205
:103F80003C46B5EEC00A2046F1EE10FA05DD01F020
:103F9000EDF9204601F01EFA04E001F0F5F92046A3
:103FA00001F00AFAB0EEE80A10EE100A404506DA0F
:103FB000B0EEC90A10EE100AB0F17C5F03DB0A20F4
:103FC000FCF7E8FEB4E701F0EDF9BDEC068BBDE8C7
:103FD000F04701F00DBA0000E035002000000000BD
:103FE0000000FA450000FAC50000FA450000FAC5D5
:103FF0007047704710B525482DED068BF0EE088A06
:10400000F0EE680A9FED1D9A9FED1D8ADFED1D9A67
:104010009FED1DAAB0EE481AB0EE692AF0EE4A1ADA
:10402000B0EE490AFFF750FF1848B0EE692AF0EEEB
:104030004A1AB0EE481AF0EE680AB0EE490A20308B
:10404000FFF742FF9FED128A1048B0EE480AFFF7D3
:104050004DFF0E48B0EE480A2030FFF747FF0B48EF
:1040600000F1200180ED048A81ED048A80ED058A4B
:1040700081ED058ABDEC068B10BD000000001644E2
:104080000000484200400346004003C60C170020D1
:104090000000000004489FED030A80ED020A80ED55
:1040A000030A70470000000004000020FDF750BA2A
:1040B00030B593B034216846FCF7F7F914210DA808
:1040C000FCF7F3F91E480025016841F080510160BA
:1040D000006800F0805012901A48016821F44041B5
:1040E00041F4804101600068022400F440401290D5
:1040F000012003901020009406940490CDE907500D
:104100004FF4A87009900420CDE90A0468460C9485
:10411000FDF7BCFB08B172B6FEE70DA90F2081E8E0
:1041200031004FF48050CDE9100502210DA8FDF7B4
:10413000A9FA002801D072B6FEE713B030BD000026
:1041400040380240007000400248016841F47001AC
:104150000160704788ED00E00148FEF721B80000DB
:10416000203800200148FEF71BB800006838002006
:10417000F0B50268274B284D284E294F294C4FF0A7
:10418000804C984209D0604507D0A84205D0B04283
:1041900003D0B84201D0A04204D122F0700E4A6888
:1041A00042EA0E0298421BD0604519D0A84217D0AF
:1041B000B04215D0B84213D0A04211D01A4DA84237
:1041C0000ED01A4DA8420BD0194DA84208D0194D57
:1041D000A84205D0184DA84202D0184DA84203D1DC
:1041E00022F44075CA682A434D6922F080022A43AE
:1041F0008D68C5620D688562984201D0A04201D1E8
:1042000009690163016841F0040101600121416114
:104210000260F0BD000001400004004000080040C2
:10422000000C0040000401400040014000440140F7
:104230000048014000180040001C004000200040E1
:1042400010B501F01F030121046A99408C430462F8
:10425000016A9A401143016210BD10B5846842EAB8
:10426000032224F47F440A432243826010BD826803
:1042700022F070020A4342F007018160704700009B
:10428000F0B5036A026A22F00102026242688469A0
:10429000124E24F073050C682C4323F002058B6842
:1042A0002B430D4DA84201D0B04205D123F00807A1
:1042B000CB683B4323F00403A84201D0B04205D1B0
:1042C0004D6922F4407215438A692A434260846131
:1042D000496841630362F0BD0000014000040140F1
:1042E000F0B5026A036A23F010030362436884692D
:1042F0000D6824F4E64444EA05248D6822F0200287
:1043000042EA05120F4D104EA84201D0B04206D12C
:10431000CF6822F0800242EA071222F04002A8424F
:1043200001D0B04207D14D6923F4406343EA8503CD
:104330008D6943EA85034360846149688163026251
:10434000F0BD00000000014000040140F0B5026A29
:10435000036A23F4807303624368C46922F4007221
:1043600024F073050C68124E2C438D6842EA052236
:104370000E4DA84201D0B04206D1CF6822F40062AF
:1043800042EA072222F48062A84201D0B04207D15B
:104390004D6923F4405343EA05138D6943EA05133D
:1043A0004360C4614968C1630262F0BD000001401E
:1043B0000004014030B5046A026A22F480520262AD
:1043C0004268C3690D6823F4E64343EA05238D6818
:1043D00024F4005444EA0534084DA84202D0084DA4
:1043E000A84204D14D6922F4804242EA851242601B
:1043F000C36149680164046230BD000000000140EF
:104400000004014010B5036A046A24F00104046248
:10441000846924F0F00444EA021423F00A020A43F7
:104420008461026210BD10B5036A046A24F01004AE
:104430000462846923F0A00324F4704444EA023245
:1044400043EA01118261016210BD00000148FEF7DC
:104450001FB900004039002010B5806B0021C185D4
:10446000FEF714F910BD70B5846B2068406994F8AC
:104470004110C0F3C0100025212904D118B1E584F2
:10448000204600F0B4F82068406994F84210C0F368
:104490008010222904D118B1E585204600F080F86B
:1044A000606C40F0100060642046FEF7EFF870BDCD
:1044B00010B50146806B096809684FF00002C90514
:1044C0002ED4C28501680C3151E8003F23F480737B
:1044D00041E80034002CF5D10168143151E8003F67
:1044E00023F0010341E80034002CF5D101681431B8
:1044F00051E8003F23F0400341E80034002CF5D19F
:10450000202180F84210016B012909D101680C318A
:1045100051E8003F23F0100341E80034002CF5D1AE
:104520004263016B012902D0FEF72CFB10BD818D87
:10453000FEF7ABF810BD10B5806B01214163016B34
:10454000012902D0FEF752FB10BD818D4908FEF70C
:104550009CF810BD10B50146806B09680968C90553
:1045600016D40021C1840168143151E8002F22F0D3
:10457000800241E80023002BF5D101680C3151E89D
:10458000002F42F0400241E80023002BF5D110BD7E
:10459000FEF7C0FB10BD10B5806BFEF7BCFB10BD75
:1045A00001680C3151E8002F22F4907241E8002399
:1045B000002BF5D10168143151E8002F22F00102DF
:1045C00041E80023002BF5D1016B012909D10168D5
:1045D0000C3151E8002F22F0100241E80023002B9B
:1045E000F5D1202180F84210002101637047016855
:1045F0000C3151E8002F22F0C00241E80023002BCB
:10460000F5D1202180F84110704708B590F842108C
:10461000222901D0022008BD82684FF480539A42BB
:1046200001D1016921B1816A9A421BD04AB10AE0E5
:104630000268816A5268C2F308020A80816A891C92
:1046400008E0026972B10268526802F07F020A70E3
:10465000816A491C8162C18D491E0904090CC1850A
:1046600003D01BE002685268F1E70168CA6822F0D3
:104670002002CA600168CA6822F48072CA600168B8
:104680004A6922F001024A61202180F8421000218B
:104690004163026B012A03D0FEF774FA002008BDC3
:1046A000016301680C3151E8002F22F0100241E84B
:1046B0000023002BF5D101680A68D20602D50A68EA
:1046C00049680091818DFDF7E0FFE7E770B504468A
:1046D00000680169E26821F44051114301612169D8
:1046E000A068E26908436169114308432168CA6808
:1046F00049F20C639A430243CA6020684169A26987
:1047000021F440711143416131492068884202D04F
:104710003049884202D1FDF75FF801E0FDF74CF81F
:10472000E2690023192164253226B2F5004F626840
:1047300028D0A0FB0101930F9200FBF70DFE01466C
:10474000B0FBF5F06FF01802504301EB800006EB70
:104750000010B0FBF5F000F0F002B1FBF5F002EB59
:104760000012B1FBF5F06FF01803584301EB800025
:1047700006EB0010B0FBF5F000F00F0021681044CC
:10478000886070BDA0FB010192185B41FBF7E4FD5E
:104790000146B0FBF5F00201B1FBF5F06FF0180334
:1047A000584301EB800006EBC000B0FBF5F000F0D1
:1047B000F80002EB4002B1FBF5F0584301EB80003A
:1047C00006EBC000B0FBF5F000F00700D6E70000F4
:1047D000001001400014014038B581620446828512
:1047E000002013466064222284F84220E56B1F4AB1
:1047F000EA63E56B1E4A2A64E56B1E4AEA64E26BD3
:1048000010650A462168E06B091DFCF78BFA30B190
:1048100010206064202084F84200012038BD206808
:10482000016840680090206948B120680C3050E869
:10483000001F41F4807140E80012002AF5D1206881
:10484000143050E8001F41F0010140E80012002A36
:10485000F5D12068143050E8001F41F0400140E8D5
:104860000012002AF5D1002038BD0000B144000834
:10487000374500086744000881628285C2850021AF
:104880004164222180F84210016921B10168CA689F
:1048900042F48072CA6001684A6942F001024A61CA
:1048A0000068C16841F02001C160002070472DE917
:1048B000F843984617460D460446089E24E0701CAF
:1048C00022D0FCF76DFBA0EB0800B0421AD8CEB1A5
:1048D0002068C168490717D5802D15D0402D13D009
:1048E0000168C94309070FD401680025406800909A
:1048F0002046FFF755FE0820606484F840500120F0
:10490000BDE8F8830320FBE72068006835EA000073
:1049100004D00020B842D2D00020F1E70120F9E70E
:104920000148FDF7B5BE0000D0390020FEE703B412
:1049300001984100009850EAC12018BF04204A0D98
:1049400018BF40F0010040F2FF72B2EB515F08BFA8
:1049500040F00200012808BF052002B07047090797
:10496000090E002804DB00F1E02080F800147047F5
:1049700000F00F0000F1E02080F8141D70470000E7
:1049800070B59B482DED020B2DED068B079D25F094
:104990000044A04218DC9748844202DC0AD1069801
:1049A00040B19DED060BBDEC068B02B0BDE870403A
:1049B00000F015BB002DCCBF9FED8F0B9FED900B32
:1049C000BDEC068B02B070BD8F48A04215DD8F484C
:1049D000A042D8BF4FF0FF3458DD9DED060B51ECDF
:1049E000100BFFF7A4FF042808BF00F00DFB9DED9E
:1049F000060BBDEC068B02B070BD9DED060B51ECB5
:104A0000100B00F0B3FBCDE9060181489FED828BCE
:104A1000A0423CDD8248A0421FDD00249FED82AB16
:104A20009DED060B53EC1A2B51EC100B00F06EFDB4
:104A30009DED060B41EC190B53EC1A2B51EC100BAE
:104A400001F012F853EC182B01F01AFA53EC192B61
:104A500000F010FECDE9060149E09DED060B0124B2
:104A600053EC182B51EC100B00F050FD9DED060B94
:104A700041EC190B53EC182B51EC100B01F000FA20
:104A800053EC192B00F0F6FDCDE906012FE0684844
:104A9000A0421FDD02249FED689B9DED060B53ECA9
:104AA000192B51EC100B00F0DFFF53EC182B00F02A
:104AB0002DFD9DED060B41EC180B53EC192B51EC21
:104AC000100B01F0DDF953EC182B00F0D3FDCDE90C
:104AD00006010CE09DED060B032453EC102B9FED1B
:104AE000580B51EC100B00F0C5FDCDE906019DED12
:104AF000060B53EC102B51EC100B00F0B5FF41EC02
:104B0000180B53EC182B00F0AFFF41EC190B4E487B
:104B10000621B0EE490AF0EE690A784400F0E3F9A4
:104B200053EC182B51EC100B00F09EFF41EC180BCE
:104B30004648B0EE490AF0EE690A0521784400F0D3
:104B4000D2F953EC192B51EC100B00F08DFF41EC16
:104B5000100B51EC180B53EC102B002C0EDA00F05C
:104B6000D5FC9DED061B53EC112B00F07DFF9DED58
:104B7000061B53EC112B01F0ABF835E000F0C6FC3E
:104B80009DED061B53EC112B00F06EFF41EC100B5A
:104B90002F48784400EBC40090ED001B51EC100B43
:104BA00053EC112B01F06CF99DED061B53EC112B0E
:104BB00001F066F941EC100B2648784400EBC40084
:104BC00090ED001B51EC100B53EC112B01F080F811
:104BD00041EC100B002DA2BFBDEC068B02B070BDE6
:104BE00051EC100B00F053FC41EC100B01E70000FE
:104BF000000010440000F07F182D4454FB21F93FC1
:104C0000182D4454FB21F9BF0000DC3F0000203E7A
:104C10000000F33F00000000000000000000F03F33
:104C20000000E63F0000000000000000000000401F
:104C30000080034000000000000000000000F83F7A
:104C4000000000000000F0BF42200000F81F00003C
:104C5000821F00003A1F000070B56F4E2DED040B4F
:104C60002DED048B82B0DDF824C0DDE907235C4222
:104C70002CF000411C4341EAD474069D22F0004010
:104C8000B44205D86C422C4340EAD474B4420BD9E8
:104C90009DED081B9DED060B02B0BDEC048B04B02E
:104CA000BDE8704000F0A5B9ACF14054A4F17F64B8
:104CB0001C430BD0022404EAAC7444EAD2740543CA
:104CC0009FED578B9FED582B07D015E09DED060B00
:104CD00051EC100B00F036FA42E0002C11BF012C11
:104CE0009DED060B02B0BDEC048B04BF04B070BD9B
:104CF000022C38D0032C3BD00B439FED4D1B9FED76
:104D00004E0B0AD0B14218D1B04209D121F08041F6
:104D100020F08040099107900FE0002A15DA10E09A
:104D2000474B7B44002C08BF93ED000B0DD0012CAA
:104D300010D0022C17D0032C1AD0B0421DD1002A5B
:104D400003DAB0EE410AF0EE610A02B0BDEC048B6A
:104D500004B070BD93ED000B51EC100B00F097FB0D
:104D600041EC100BF1E7B0EE480AF0EE680AECE710
:104D7000B0EE420AF0EE620AE7E7401A00159FED36
:104D8000329B3C28C8BF8DED000B17DCBCF1000F37
:104D9000BCBF10F13C0F8DED009B0FDB9DED080BB0
:104DA00053EC102B9DED060B51EC100B00F062FC48
:104DB00000F0DCF900F0C6F9CDE90001B4B1012C36
:104DC00010D0022C9FED220B53EC102B9DED000B0D
:104DD00051EC100B19D001F053F853EC182B01F0E3
:104DE0004FF8BDE7019880F0004001909DED000B69
:104DF00053EC192B51EC100B00F094FD04BF022072
:104E0000FBF7D5FB9DED000B9FE701F039F853EC64
:104E1000182B00F05DFFA3E70000F07F000000000A
:104E2000182D4454FB210940182D4454FB2109C07E
:104E3000182D4454FB21F9BF182D4454FB21F93F90
:104E40006A1E0000000000000000000000000000DA
:104E5000075C143326A6A13C2DED020B019820F02F
:104E6000004001909DED000B02B0704700B52DEDA4
:104E7000048BB0EE409AF0EE609A83B051EC190BBF
:104E800000F032FF41EC180B18EE100A18EE901AE1
:104E90008DED008B002818BF0120084320F0004052
:104EA000C0F17F6000F1E040C00F14D019EE101A7D
:104EB00019EE900A8DED009B002918BF01210843CF
:104EC00020F00040C0F17F6000F1E040C00F04BF5F
:104ED0000120FBF76CFBB0EE480A03B0F0EE680A65
:104EE000BDEC048B00BD70B504462DED028B4D1E4C
:104EF00000EBC500B0EE408AF0EE608A90ED000B4A
:104F000035F0060017D053EC182B51EC100B00F0C5
:104F1000ABFD41EC100B6D1E04EBC50090ED001BCA
:104F200051EC100B53EC112B00F0F0FA41EC100B8C
:104F300035F00600E7D1022D36D0042D1CD0062D09
:104F40001CBFBDEC028B70BD53EC182B51EC100B49
:104F500000F08AFD94ED0A1B53EC112B00F0D6FAF9
:104F600053EC182B00F080FD94ED081B53EC112B33
:104F700000F0CCFA41EC100B53EC182B51EC100B59
:104F800000F072FD94ED061B53EC112B00F0BEFAFD
:104F900053EC182B00F068FD94ED040B53EC102B30
:104FA00000F0B4FA41EC100B53EC182B51EC100B41
:104FB00000F05AFD94ED021B53EC112B00F0A6FA01
:104FC00053EC182B00F050FD94ED001B53EC112B0B
:104FD00000F09CFABDEC028B41EC100B70BD10B5DB
:104FE00053EC102B51EC100B00F090FA41EC100B2D
:104FF00010BD10B553EC112B51EC100B00F086FADC
:1050000041EC100B10BD00009FED050B10B553ECEB
:10501000102B51EC100B00F027FD41EC100B10BDD4
:10502000000000000000001070B500230A240BE00F
:10503000B0FBF4F504FB1505B0FBF4F0CE1A1644F2
:105040005B1C06F8015CDBB28B42F1D370BD0246FB
:10505000012000E05043491EC9B2FBD2704770B531
:1050600004460D4600F00F0000F00CF8102040EA56
:10507000141000F007F845F0B000BDE8704000F0F3
:1050800001B8000001B584B001214FF4807204A87A
:105090008DE807000B46002278210248FCF74CF906
:1050A00005B000BDF436002001B584B001214FF4F5
:1050B000807204A88DE807000B4640227821024840
:1050C000FCF73AF905B000BDF436002030EE410A95
:1050D00018499FED162A10EE100ADFED151A9FED04
:1050E000161AF6EE000A884201DD30EE410A134935
:1050F00010EE100A884201D930EE010A104890EDF6
:10510000041A71EE002AC0ED042A90ED031A80ED16
:10511000030A30EE411A22EE000A01EEA20A00EE66
:10512000810ABDEEC00A10EE100A70470000C842A6
:10513000CDCCCC3D000034430000B443000034C368
:10514000C000002010B541EC100BFFF719FC51EC2A
:10515000100B10BDDFED040A20EE200ABDEEC00AE0
:1051600010EE100A704700000008CF4582B0CDE96C
:10517000000121F0004001909DED000B02B051ECC8
:10518000100B704741F2301241F29411904209D352
:10519000821A642A06D941F65831884202DC494213
:1051A000884201DA0846704741F293114218FAD357
:1051B000C84370472DED028BFCF7D2F9FEF778FF5C
:1051C000FEF706FBFEF7B8FAFEF72CFDFEF7F4FB40
:1051D000FEF744FDFEF748FBFEF766FBFEF7D0FC4A
:1051E000FEF7B6FBFEF788FCFEF700FDFEF7A6FC17
:1051F000FEF77AFBFEF74CFC00214B48FDF73AF92D
:1052000004214948FDF736F908214748FDF732F9EE
:105210000C214548FDF72EF900F032F9FBF7B6FBFB
:10522000FEF738FFFBF7D6FA4048FCF71DFE404872
:10523000FCF7DEFDFEF7DEFEFEF742FD00213DA29B
:105240000846FEF7A7FD3D48FEF786F80028FAD18C
:1052500000213BA20846FEF79DFD3B496FF001008F
:1052600009680861FEF762F8DFF8E0800026384C34
:1052700055E0384951F8020F4D688F6881B20A290C
:1052800044D1000CE061E269082302210020FEF70E
:105290005DFD08EE105A03230622B0EE480A0421F1
:1052A0000020FEF78CFD18EE105A2B4885422DDAAF
:1052B00018EE100A2949884228D201202070B0EE49
:1052C000480AFEF717FE27489FED250A80ED000AE1
:1052D000022020700720FBF75DFD00EE107A84EDC0
:1052E000080A94ED080AFFF735FFD8F80010454684
:1052F0000844206104E000BFFBF760FBFEF7A6FD59
:10530000286821698842F7DB00F0BAF826706661E8
:10531000E069E06010220F491348FDF717FC60694F
:105320000128A6D02670FAE7D83700206838002078
:10533000B03800203536373839000000A03600205C
:10534000313233343500000048370020D4000020CB
:10535000E80000201C01002000003943000039C390
:105360000000000020000020D039002042F2D001CF
:10537000884200D90846034900220B685A6309682D
:1053800088637047D837002042F2D001884200D9A4
:10539000084603490A68506309680020886370471B
:1053A000D8370020034842F2D001026851630068F8
:1053B00081637047D837002042F2D001884200D97B
:1053C0000846034900220B68DA63096808647047DD
:1053D000D837002042F2D001884200D9084603495C
:1053E0000A68D0630968002008647047D837002035
:1053F000034842F2D0010268D1630068016470473B
:10540000D837002010B5FFF7BDFE044600EE104A65
:1054100003230522B8EEC00A06210020FEF7CFFCC8
:10542000002C04DDA0B2BDE81040FFF7C5BF06DACE
:10543000C4F10000BDE8104080B2FFF7CBBF10BD43
:10544000F0B404AC94E8E0000B4C20706170C4F838
:105450000220E3802572C4F8096010EE100AC4F837
:105460000D70C4F811002146F0BC4FF0FF33152237
:105470000248FDF7BCBB000078210020D039002095
:1054800010B5FFF78FFFBDE81040FFF7B1BF81F007
:105490000041704780F00040704721F000417047A4
:1054A00020F000407047000021F00042A2F160525D
:1054B000B2F5801F01F0004328BFD2F17F6C0BD9F9
:1054C0005FEA001C43EAC20242EB507018BF70470B
:1054D00028BF20F001007047B2F5801FBCBF1846FE
:1054E00070474FEA410C1CF5001F02D2084600F03D
:1054F00027BE70B500F062FB00000089FFF7F6BF21
:105500004FF00040A0F580007047000010B591EA10
:10551000030F48BF83F0004300F1BA84841A71EB93
:10552000030C05D2121943EB0C03001B61EB0C01B9
:10553000DFF824E14FEA1154A4EB135C1EEA430F99
:1055400018BF9EEA445F73D023EA0E03DCF1200EFD
:1055500021EA045143F4801332D322FA0CFE10EBFB
:105560000E0023FA0CFE41EB0E01CCF1200E03FAE3
:105570000EFE10EB0E0051F10001B1F5801FCCF1D1
:10558000200E32D201EB045112FA0EF2BDE81040A7
:1055900058BF7047401C38BF5FEA420218BF7047CF
:1055A000002814BF20F0010041F100014FEA41033F
:1055B00013F5001F38BF7047A1F1C04100F04CBB8C
:1055C000012A43EB0302ACF1200CDCF11F0E32BFC9
:1055D0004FF0000E23FA0CF310EB030041EB0451E3
:1055E000B4EB115FD0D0A1EB045101F58011490853
:1055F0005FEA300001EB04510ED350F1000038BFD8
:1056000012FA0EFE08D1BDE81040C9E7401C38BFB1
:105610005FEA4202CAD1C3E7BDE810404FEA410346
:1056200013F5001F38BF7047A1F1C04100F014BB53
:105630009EEA445F08D011EA5E0FBDE8104004BF47
:1056400001F0004100207047BDE8104070B500F047
:10565000B5FA00BF64FBBE3E0000E0FF491058BF32
:10566000C1F140415B1058BFC3F140438B42EFF39F
:10567000008070472DE9C04130B4DFF8A0C23CEA99
:10568000111418BF3CEA131400F0EC8081EA030502
:105690001CEA111444EAD57418BF1CEA131500F073
:1056A000C780A4EB05044FF0004545EAC12145EA57
:1056B000C32341EA505143EA525304F17F749942A3
:1056C00004F500344FEAC0204FEAC22208BF9042DE
:1056D00000F09C804FEA13650FF24016765D4FEAAA
:1056E000134506FB05F7C7F1807706FB07F74FEA7E
:1056F000D737A7FB03687642C8F58038A7FB06CEEC
:1057000038BFA8F1010807FB08E64FF0000EA6FB22
:10571000028CE6FB03CEDCF1000CCEF1004E38BF6C
:10572000AEF1010EA6FB0C584FF000074FF000053C
:10573000E6FB0E87A1FB08C6A0FB07CE16EB0E0604
:1057400045F10005E1FB076515F1E04E7EBFA4F5CC
:1057500080345FEA46066D4116F1800745F1000589
:105760004FEA17274FEA066647EA0567A6F1DE46C5
:10577000B6F1805F4FEA15251FD9384624F0010C99
:1057800005EBC471BCF1FE6F01EB0C1102D8F0BC4B
:10579000BDE8008124425CBF01F5801E9EEAC47F03
:1057A00002D4F0BCBDE80081244238D4F0BCA1F1A1
:1057B000C041BDE8004100F04FBA4FEAD22242EAB0
:1057C00043524FEAD323A7FB02864FEAD02040EA98
:1057D000415007FB03661EEA0E0F4FEAD12105FB7D
:1057E000026658BFA6EB0056B6EB00564FEA520EC3
:1057F0004EEAC37E18EB0E0E56EB530EBDD518EBDA
:1058000002085E417F1C55F10005B6E74FF4801594
:105810004FF000074FF000064FF00008ADE7F0BC76
:105820004FF0000001F1C04101F00041BDE80081EE
:1058300011EA0C1F0CEA131500D00CE013EA0C1F40
:1058400000F025804FF00000F0BC81EA030101F078
:105850000041BDE80081F0BCBDE8004181EA0301E0
:1058600000F0FAB9F0BCBDE8004170B500F0A6F94F
:10587000097EFC3E00F007B881EA03014FF000000A
:1058800001F00041704781EA030100F0E5B9F0BC86
:10589000BDE800414FF0000021497047FFFDFBF9D2
:1058A000F7F5F4F2F0EEEDEBE9E8E6E4E3E1E0DE53
:1058B000DDDBDAD8D7D5D4D3D1D0CFCDCCCBCAC8C5
:1058C000C7C6C5C4C2C1C0BFBEBDBCBBBAB9B8B7EC
:1058D000B6B5B4B3B2B1B0AFAEADACABAAA9A8A8DF
:1058E000A7A6A5A4A3A3A2A1A09F9F9E9D9C9C9BAD
:1058F0009A99999897979695959493939291919058
:105900008F8F8E8E8D8C8C8B8B8A898988888787E8
:105910008685858484838382828181800000FF075D
:105920000000F87F51EA030C17D41CF5801F58BF04
:10593000BCF5801F00F10680994218BF704708BF70
:105940009042704707D711F5801F58BF13F5801F8D
:1059500019D499427047894270471CF5801F08D5B9
:10596000BCF5801FF7D58B4218BF704708BF824235
:1059700070474FF4001C1CEB410F38BF1CEB430F6A
:1059800001D28B42704770B500F018F9922449009B
:105990004FF000514FF08053FFF760BE10F000420F
:1059A00048BF4042B0FA80F310FA03F10AD0C3F1C5
:1059B0001D0303F580634FEA415002EB035202EBF3
:1059C000D12170474FF000007047B0FA80F310FA11
:1059D00003F10AD0C3F11D0303F580634FEA415080
:1059E0004FEA035202EBD12170474FF0000070479D
:1059F00051EA030C17D41CF5801F58BFBCF5801F5B
:105A000000F10680994218BF704708BF9042704766
:105A100007D711F5801F58BF13F5801F19D499427D
:105A20007047894270471CF5801F08D5BCF5801F60
:105A3000F7D58B4218BF704708BF824270474FF4BA
:105A4000001C1CEB410F38BF1CEB430F01D28B42F3
:105A5000704770B500F0B2F8922449004FF0005141
:105A60004FF08053FFF7FABDDFF848C170B51CEA6C
:105A7000111E1EBF1CEA13159EEA0C0F95EA0C0FAF
:105A800000F06F8081EA030423EA4C134EEAD47ECF
:105A900021EA4C1141F4801143F48013AE44A1FB80
:105AA000024CA0FB0365AEF17F7E361955EB0C0569
:105AB000A1FB034C4CF10003A0FB021C16EB0C06EF
:105AC000654153F10003094218BF46F0010613F483
:105AD000007F0BD14FEA03314FEA0530340341EA2E
